:1000000001308A00A82900000A108A100A1182070C
:1000100028340C34013406340C10D934EB30EE346F
:10002000F937721700000C10D934EB30ED30203165
:10003000693AF4342E000C22753975366137E93C83
:100040006F392E000C2275397536E1366110E234B5
:10005000743A691700018C29E9356936E93C6F3932
:100060002E008C29E935ED302031693AF4342E0028
:100070008C2CE935E1366110F430ED306D366137A6
:10008000E4342E0027308400831300080319562817
:100090000130F800F701F70B4B28F80B4A284A30DB
:1000A000F700F70B51285428800B482808002E0E23
:1000B000F039F7000F3008057704880000000814B5
:1000C0006128081008000808F700080E0F39F8002A
:1000D00008008316081088100811831288100F304A
:1000E00083160805F03888008312081500000814EC
:1000F000000063207808AE0008100000081400001B
:1001000063207808AD0008100F30831608058800BA
:1001100083122E0EF700F030F70577082D04F80053
:100120007808AD00AD1B6F282B1C88102B18881485
:1001300000000811000008102C0EAD000F30AD05B6
:100140002D08AE0057202C080F39AD00AE00572007
:1001500008000F3083160805880008108810081161
:1001600083128810081108100F30A70042200130B8
:10017000A2002208033C031CC5280330AE00572010
:100180000530A7004220A20AB9280230AE0057204D
:100190000530A7004220A2012208033C031CD928F5
:1001A00022080420A300AB012308AC006920A20AA6
:1001B000CC288A110A12BF29280BDF28E2284030F8
:1001C000A900E328A90101302702A90729088038DE
:1001D000AA00AB012A08AC00692008002608073AEB
:1001E0000319FC280B3A03190129063A03190929B6
:1001F000023A03190F2914290130A700A800DC20B6
:100200001929AB010130AC0069200230A70042205F
:1002100019290130A7000230A800DC201929AB0100
:100220001030AC00692019290130AB002608AC0061
:10023000692008000B08A2008B13831603178C1784
:100240000C140000000083120C087F390319612987
:100250000313A30003170D080313A40003170F08CB
:100260000313A5002308A600EE20240803178D0021
:100270000313250803178F0083168C170C14000036
:10028000000083120C0D0E0D7F3903196129031331
:10029000A30003170D080313A40003170F0803138B
:1002A000A5002308A600EE20240803178D000313E1
:1002B000250803178F008D0A03198F0A03131D29C0
:1002C00003170313A21B8B17080083168601053042
:1002D000831286003C30A200FA30A7004220A20B15
:1002E0006C29831686010630831286003C30A200FA
:1002F000FA30A7004220A20B7829831686018312C8
:100300008601080000308316860083120616083026
:10031000A200FA30A7004220A20B892900308316E0
:1003200086008312061208000030831686008312AE
:1003300086150830A200FA30A7004220A20B9B29A4
:10034000003083168600831286118A110A12FA2958
:1003500083161F149F141F159F1107309C008313D1
:100360001F30830500308600860183128601FF302E
:10037000831685000030880083128801A92883161F
:1003800005148312051C412A0C3003178D00003020
:100390008F0003131A2100308316860083128615FE
:1003A0000830A200FA30A7004220A20BD229003068
:1003B0008316860083128611A101A108031DE3297B
:1003C0006521A10ADD29133003178D0000308F004D
:1003D00003131A210830A200FA30A7004220A20B12
:1003E000EC291B3003178D0000308F0003131A21F6
:1003F0008221942965218221223003178D0000304B
:100400008F0003131A210830A200FA30A7004220FF
:10041000A20B052A2B3003178D0000308F00031329
:100420001A21831686010530831286003C30A20013
:10043000FA30A7004220A20B182A831686018312E5
:100440008601313003178D0000308F0003131A210D
:10045000383003178D0000308F0003131A2100304D
:1004600083168600831286160430A200FA30A70095
:100470004220A20B362A0030831686008312861291
:06048000282ABF296300D9
:02400E00313F40
:00000001FF
;PIC16F877A
;CRC=03E3  CREATED="09-Tem-23 18:44"
